:020000040000FA
:100000000C9462000C948A000C948A000C948A0070
:100010000C948A000C948A000C948A000C94950528
:100020000C948A000C948A000C948A000C9431057C
:100030000C948A000C948A000C948A000C948A0018
:100040000C948F040C948A000C94FF040C94D90433
:100050000C948A000C948A000C948A000C948A00F8
:100060000C948A000C948A000000000024002700F1
:100070002A0000000000250028002B0000000000DE
:1000800023002600290004040404040404040202DA
:100090000202020203030303030301020408102007
:1000A0004080010204081020010204081020000012
:1000B0000008000201000003040700000000000027
:1000C0000000A00611241FBECFEFD8E0DEBFCDBFD9
:1000D00011E0A0E0B1E0E2E5FCE102C005900D9284
:1000E000AA35B107D9F724E0AAE5B1E001C01D9215
:1000F000AA31B207E1F710E0C2E6D0E004C02197D0
:10010000FE010E94210EC136D107C9F70E942B07BC
:100110000C94270E0C940000833081F028F4813079
:1001200099F08230A9F008958730A9F08830C9F09D
:100130008430B1F4809180008F7D03C08091800075
:100140008F7780938000089584B58F7784BD08955C
:1001500084B58F7DFBCF8091B0008F778093B00006
:1001600008958091B0008F7DF9CFCF93DF93282F32
:1001700030E0F901E255FF4F8491F901E656FF4F57
:10018000D491F901EA57FF4FC491CC23A1F081111A
:100190000E948C00EC2FF0E0EE0FFF1FE458FF4FA1
:1001A000A591B491EC91ED2381E090E009F480E019
:1001B000DF91CF91089580E090E0FACF1F93CF9325
:1001C000DF93282F30E0F901E255FF4F8491F901C8
:1001D000E656FF4FD491F901EA57FF4FC491CC2363
:1001E000A9F0162F81110E948C00EC2FF0E0EE0F89
:1001F000FF1FEE58FF4FA591B4918FB7F894EC9183
:10020000111108C0D095DE23DC938FBFDF91CF9111
:100210001F910895DE2BF8CFCF93DF9390E0FC0180
:10022000E656FF4F24918A579F4FFC018491882303
:10023000D1F090E0880F991FFC01E859FF4FA5917C
:10024000B491FC01EE58FF4FC591D49161110EC0DD
:100250009FB7F8948C91E22FE0958E238C932881A0
:10026000E223E8839FBFDF91CF9108958FB7F89481
:10027000EC91E22BEC938FBFF6CF4F925F926F928F
:100280007F928F929F92AF92BF92CF92DF92EF9226
:10029000FF921F93CF93DF936A017B019C0150E093
:1002A00040E060E472E48FE090E00E94840C290159
:1002B0003A0161E08091F1030E940C01A8EEB3E0E5
:1002C000A70196010E94A30C4B015C01E201D595A8
:1002D000C795CC0FDD1FCC0FDD1F2597C12CD12C6E
:1002E0007601C814D904EA04FB04B0F41091F103B8
:1002F00061E0812F0E94DE00CE010197F1F760E0FE
:10030000812F0E94DE00CE010197F1F7A895C40C61
:10031000D51CE61CF71CE5CFDF91CF911F91FF9014
:10032000EF90DF90CF90BF90AF909F908F907F9095
:100330006F905F904F9008951F93CF93DF93182F86
:10034000EB0161E00E940C01209739F460E0812FFD
:10035000DF91CF911F910C94DE00CF3FD10511F4B6
:1003600061E0F5CFE12FF0E0E255FF4FE491E3309B
:1003700031F140F4E130B1F0E230E1F0C038D105C4
:100380007CF7E4CFE73029F1E83059F1E430B1F7F8
:1003900080918000806280938000D0938B00C09316
:1003A0008A0004C084B5806884BDC7BDDF91CF9149
:1003B0001F91089584B5806284BDC8BDF7CF809138
:1003C0008000806880938000D0938900C09388006B
:1003D000EDCF8091B00080688093B000C093B300EF
:1003E000E5CF8091B00080628093B000C093B400EC
:1003F000DDCF8E50806480937C0080917A00806491
:1004000080937A0080917A0086FDFCCF80917800FD
:100410009091790008953FB7F894809135029091BA
:100420003602A0913702B091380226B5A89B05C0CC
:100430002F3F19F00196A11DB11D3FBFBA2FA92F63
:10044000982F8827BC01CD01620F711D811D911D60
:1004500042E0660F771F881F991F4A95D1F70895CC
:100460008F929F92AF92BF92CF92DF92EF92FF92C4
:100470004B015C010E940B026B017C010E940B028C
:100480006C197D098E099F09683E734081059105AD
:10049000A8F321E0821A9108A108B10888EEC80EDD
:1004A00083E0D81EE11CF11C81149104A104B10465
:1004B00029F7FF90EF90DF90CF90BF90AF909F9083
:1004C0008F9008950F931F93CF93DF93C1E1D0E0F6
:1004D00081E10E94F901080F191F6AE070E080E0D5
:1004E00090E00E943002219799F7C80161E170E025
:1004F0000E94F90DCB01DF91CF911F910F910895CB
:10050000AF92BF92CF92DF92EF92FF920F931F9321
:10051000CF93DF936C017B018B01040F151FEB015F
:100520005E01AE18BF08C017D10759F06991D60116
:10053000ED91FC910190F081E02DC6010995892B88
:1005400079F7C501DF91CF911F910F91FF90EF9047
:10055000DF90CF90BF90AF900895FC01538D448DF4
:10056000252F30E0842F90E0821B930B541710F05E
:10057000CF96089501970895FC01918D828D98176B
:1005800061F0A28DAE0FBF2FB11D5D968C91928D43
:100590009F5F9F73928F90E008958FEF9FEF089574
:1005A000FC01918D828D981731F0828DE80FF11D3D
:1005B000858D90E008958FEF9FEF0895FC01918D58
:1005C000228D892F90E0805C9F4F821B91098F7351
:1005D0009927089589E392E00E94DE0221E0892BA9
:1005E00009F420E0822F089580E090E0892B29F023
:1005F0000E94EA0281110C9400000895FC01A48D70
:10060000A80FB92FB11DA35ABF4F2C91848D90E034
:1006100001968F739927848FA689B7892C93A08917
:10062000B1898C91837080648C93938D848D9813A1
:1006300006C00288F389E02D80818F7D8083089534
:10064000EF92FF920F931F93CF93DF93EC0181E022
:10065000888F9B8D8C8D98131AC0E889F9898081C9
:1006600085FF15C09FB7F894EE89FF896083E889FC
:10067000F98980818370806480839FBF81E090E0EE
:10068000DF91CF911F910F91FF90EF900895F62E7B
:100690000B8D10E00F5F1F4F0F731127E02E8C8D15
:1006A0008E110CC00FB607FCFACFE889F98980815A
:1006B00085FFF5CFCE010E94FE02F1CFEB8DEC0F4E
:1006C000FD2FF11DE35AFF4FF0829FB7F8940B8F77
:1006D000EA89FB8980818062CFCFCF93DF93EC01E1
:1006E000888D8823B9F0AA89BB89E889F9898C911A
:1006F00085FD03C0808186FD0DC00FB607FCF7CFD6
:100700008C9185FFF2CF808185FFEDCFCE010E94D5
:10071000FE02E9CFDF91CF9108951F93CF93DF932E
:10072000EC01162F61E089810E940C01612F898103
:10073000DF91CF911F910C94DE000F931F93CF9305
:10074000DF93FC01268137812617370711F1EB0172
:100750008C017783668377FD10C061E00E948D0372
:100760008FE090E00197F1F7BE01F8018081DF9101
:10077000CF911F910F910C949C0160E00E948D031A
:100780008FE090E00197F1F7662777276C1B7D0BD0
:10079000ECCFDF91CF911F910F910895CF93DF930D
:1007A000EB0166277727681B790B8AEF93E00E949D
:1007B0009D03BE0182EF93E0DF91CF910C949D03E6
:1007C00070E060E08AEF93E00E949D0370E060E0DB
:1007D00082EF93E00C949D036AEF70E086E09FEF58
:1007E0000E94CE0360E471E080E090E00E9430025D
:1007F0000C94E00366E07FEF8AEF90E00E94CE0366
:1008000060E471E080E090E00E9430020C94E0032C
:100810006FEF70E08EE00E949C016FEF70E08FE060
:100820000C949C0170E060E08EE00E949C0170E0FE
:1008300060E08FE00C949C01009711F40C94080484
:100840008130910551F46FEF70E08EE00E949C01C1
:1008500070E060E08FE00C949C01029741F470E03E
:1008600060E08EE00E949C016FEF70E0F3CF0C948B
:100870001204CF92DF92EF92FF920F931F93CF93C8
:10088000DF93EB017B0124E0E20EF11C8B016C0194
:10089000C61AD70AC601800F911F0E946E0CF8017C
:1008A00081938F01EE15FF05A9F7CE01DF91CF915E
:1008B0001F910F91FF90EF90DF90CF9008959F923E
:1008C000AF92BF92CF92DF92EF92FF920F931F935E
:1008D000CF93DF935C017B018B01D0E0C0E0F80196
:1008E00091908F016501CC0EDD1EC6010E946E0C39
:1008F000981621F0692DC6010E94760C2196C4300D
:10090000D10569F7C701DF91CF911F910F91FF903A
:10091000EF90DF90CF90BF90AF909F9008951F927F
:100920000F920FB60F9211242F933F938F939F93A3
:10093000AF93BF938091310290913202A091330224
:10094000B09134023091300223E0230F2D3758F557
:100950000196A11DB11D2093300280933102909326
:100960003202A0933302B093340280913502909109
:100970003602A0913702B09138020196A11DB11D37
:100980008093350290933602A0933702B0933802D9
:10099000BF91AF919F918F913F912F910F900FBE7B
:1009A0000F901F90189526E8230F0296A11DB11DE8
:1009B000D2CF1F920F920FB60F9211242F933F9315
:1009C0004F935F936F937F938F939F93AF93BF9357
:1009D000EF93FF9389E392E00E94FE02FF91EF9173
:1009E000BF91AF919F918F917F916F915F914F9147
:1009F0003F912F910F900FBE0F901F9018951F924F
:100A00000F920FB60F9211242F938F939F93EF9312
:100A1000FF93E0914902F0914A028081E0914F02F8
:100A2000F091500282FD1BC09081809152028F5F35
:100A30008F7320915302821741F0E0915202F0E04F
:100A4000E75CFD4F958F80935202FF91EF919F914C
:100A50008F912F910F900FBE0F901F90189580814E
:100A6000F4CF1F920F920FB60F9211242F933F9342
:100A70008F939F93EF93FF938091FB0187FF1FC09C
:100A800010928500109284008091FB018F5F80930B
:100A9000FB018091FB0187FF04C08091FB018C303A
:100AA000ACF08091840090918500049680349C493C
:100AB00090F1809184009091850004962EC08091E1
:100AC000FB0187FFE1CF8091FB01DECF2091840005
:100AD00030918500E091FB018E2FEE0F990BFC0108
:100AE000EE0FFF1FE80FF91FE952FE4F818192813F
:100AF000820F931F90938900809388008091FB015F
:100B0000FF91EF919F918F913F912F910F900FBE89
:100B10000F901F90189580E49CE990938900809332
:100B200088008FEF8093FB01EBCF1F920F920FB6DF
:100B30000F9211240F931F932F933F934F935F9323
:100B40006F937F938F939F93AF93BF93EF93FF9395
:100B500082E00E94B50020917001309171012F5FF9
:100B60003F4F30937101209370019091D6019436DC
:100B700018F095E090936B0190916B01933009F41C
:100B80004AC0A8F49230E9F1FF91EF91BF91AF9183
:100B90009F918F917F916F915F914F913F912F9195
:100BA0001F910F910F900FBE0F901F9018959430CA
:100BB00009F44AC0953041F79FB7F894409131024B
:100BC0005091320260913302709134029FBF0091C4
:100BD0006C0110916D0120916E0130916F01401BED
:100BE000510B620B730B493C51056105710508F40B
:100BF0005BC01092D601109271011092700182E0D8
:100C000020C08111C1CF1092D601109271011092B3
:100C1000700183E016C0813009F0B6CF8091700179
:100C200090917101E091D60191E09E0F9093D601D1
:100C3000F0E0E659FE4F808710927101109270012A
:100C400084E080936B01A0CF81110FC0809170016F
:100C500090917101E091D60191E09E0F9093D601A1
:100C6000F0E0E659FE4F8087D0CF809170019091DF
:100C700071018536910508F487CF85E080936B017B
:100C80002FB7F8948091310290913202A0913302F3
:100C9000B09134022FBF80936C0190936D01A093AB
:100CA0006E01B0936F0170CF81116ECF1092710100
:100CB0001092700169CFCF92DF92EF92FF920F9363
:100CC0001F93E82FF92F05C001501109210931099F
:100CD00061F1908196239417B9F305C00150110971
:100CE0002109310911F1908196239413F7CFC12C7A
:100CF000D12CE12CF12C0AC08FEFC81AD80AE80ACF
:100D0000F80A0C151D052E053F0579F08081862314
:100D1000841791F36C2D7D2D8E2D9F2D1F910F919A
:100D2000FF90EF90DF90CF90089560E070E080E05A
:100D300090E01F910F91FF90EF90DF90CF9008957A
:100D4000E9E3F2E01382128288EE93E0A0E0B0E0E3
:100D500084839583A683B7838CE491E09183808319
:100D600085EC90E09587848784EC90E09787868770
:100D700080EC90E0918B808B81EC90E0938B828B68
:100D800082EC90E0958B848B86EC90E0978B868B41
:100D9000118E128E138E148E81E090E09093D70204
:100DA0008093D6021092D8031092D9031092DA03DE
:100DB0001092DB031092DC031092DD031092DE032D
:100DC0001092DF031092E0031092E1031092E2030D
:100DD0001092E3031092E4031092E5031092E703EC
:100DE0001092E6031092E8031092E9031092EA03CE
:100DF0001092EB031092EC031092ED031092EE03AD
:100E00001092EF031092F003ECE0F4E08BE08083AB
:100E10008CE0818381E08283E6E0F4E099E09083D6
:100E20008AE0818322E02283E2E0F4E010821182F2
:100E3000128228E02093F103EAEFF3E026E020831A
:100E400027E021839283E2EFF3E095E0908394E042
:100E5000918382830895CF93DF93CDB7DEB72E972A
:100E60000FB6F894DEBF0FBECDBF789484B5826014
:100E700084BD84B5816084BD85B5826085BD85B53E
:100E8000816085BD80916E00816080936E001092BC
:100E90008100809181008260809381008091810037
:100EA00081608093810080918000816080938000C8
:100EB0008091B10084608093B1008091B000816026
:100EC0008093B00080917A00846080937A00809152
:100ED0007A00826080937A0080917A0081608093AA
:100EE0007A0080917A00806880937A001092C10025
:100EF000E0914902F0914A0282E08083E09145024C
:100F0000F09146021082E0914702F09148028FEC86
:100F1000808310925102E0914D02F0914E0286E0E2
:100F20008083E0914B02F0914C028081806180834C
:100F3000E0914B02F0914C02808188608083E091C7
:100F40004B02F0914C02808180688083E0914B02DB
:100F5000F0914C0280818F7D808360E080E10E946F
:100F60000C0168EB7BE080E090E00E94300260E2E0
:100F700072E090E080E00E94390464E172E08CE06D
:100F800090E00E94390464E272E084E090E00E9404
:100F9000390468E172E080E190E00E94390468E27F
:100FA00072E088E090E00E9439046CE172E084E134
:100FB00090E00E94390489E392E00E94BC028336EB
:100FC000910509F086C068E873E180E090E00E9436
:100FD000300200E212E01A82198289819A810E940D
:100FE0001C0468EC70E080E090E00E9430020E94F7
:100FF0006202BC01990F880B990B0E940F0CD8015B
:101000006D937D938D939D938D0168EC70E080E0EE
:1010100090E00E9430020E941204E981FA81319628
:10102000FA83E9833397C9F668E873E180E090E0DA
:101030000E94300204E112E01A82198289819A81A9
:101040000E941C0468EC70E080E090E00E94300296
:101050000E946202BC01990F880B990B0E940F0C31
:10106000D8016D937D938D939D938D0168EC70E015
:1010700080E090E00E9430020E941204E981FA812F
:101080003196FA83E9833397C9F660E272E090E023
:1010900080E00E945F0464E172E08CE090E00E94D6
:1010A0005F0464E272E084E090E00E945F0468E123
:1010B00072E080E190E00E945F0468E272E088E004
:1010C00090E00E945F046CE172E084E190E00E9495
:1010D0005F0470E0272E70E0372E60E080910604F8
:1010E0000E940C01809106040E94B5009A838983B6
:1010F00060E0809107040E940C01809107040E9427
:10110000B500AC0121E030E089819A81892B11F48E
:1011100030E020E0220F331F91E0452B09F490E0EE
:10112000922B09F0F7C00E94E0030E94120430E203
:10113000A32E32E0B32E04E112E048E0C42E42E0D8
:10114000D42E5CEF852E51E0952E1A821982D5019E
:101150006D917D918D919D915D01F801219131916C
:10116000419151918F010E94DF0C2B013C01D6016E
:101170004D925D926D927D926D0189819A810E945E
:101180001C0468EC70E080E090E00E9430020E9455
:1011900062027C010E94120468EC70E080E090E042
:1011A0000E943002B701FF0C880B990B0E940F0CB4
:1011B000F801349720813181428153810E94DF0CF4
:1011C000A30192010E944C0D20E030E04FE753E470
:1011D0000E944A0BF40161937193819391934F01A3
:1011E00089819A8101969A838983039709F0AFCF09
:1011F0008091FC019091FD01A091FE01B091FF0151
:1012000089839A83AB83BC83809100029091010211
:10121000A0910202B09103028D839E83AF83B887B1
:101220008091040290910502A0910602B0910702FC
:1012300089879A87AB87BC8700E011E01E861D86F0
:1012400023E0822E2AEF922E22E0A22EB12CF12C46
:10125000E12C29813A814B815C81D8016D917D918E
:101260008D919C910E94DF0C0E94460B2B013C014A
:101270002D813E814F815885F80164817581868179
:1012800097810E94DF0C0E94460B9B01AC01C301B9
:10129000B2010E94E00C2B013C0129853A854B8567
:1012A0005C85D80118966D917D918D919C911B97CD
:1012B0000E94DF0C0E94460B9B01AC01C301B201EE
:1012C0000E94E00C0E94BE0D681579058A059B05F9
:1012D00024F44B015C01FE86ED86BFEFEB1AFB0A9E
:1012E000045F1F4FE6E0EE16F10409F0B2CF8D85E2
:1012F0009E85892B09F002C10E94EC032114310460
:1013000009F4EBCE0E94EA02882309F4E6CE0E949B
:101310000000E3CE2FB7F894809131029091320211
:10132000A0913302B09134022FBF4091120450912A
:1013300013046091140470911504841B950BA60B83
:10134000B70B4897A105B10508F05EC18091110463
:10135000882309F45DC12FB7F894809131029091F0
:101360003202A0913302B09134022FBF8093120455
:1013700090931304A0931404B093150410921104D5
:1013800060E08CE094E00E948D0383E090E00197A0
:10139000F1F761E08CE094E00E948D0383E290E03D
:1013A0000197F1F760E08CE094E00E948D0360E02B
:1013B00080910D040E940C0180910D0490E0FC01CD
:1013C000E656FF4F6491FC01EA57FF4FE491F0E0CD
:1013D000EE0FFF1FE458FF4F8591949100E412E453
:1013E0002FE030E0462F0E945B06611571058105F4
:1013F000910529F06F5F7F4F8F4F9F4F9F706B015B
:101400007C010E940F0C6093160470931704809364
:10141000180490931904C701B6010E940F0C20E034
:1014200030E048E652E40E944C0D4B015C0120E0A4
:1014300030E048EC53E40E94F40D87FF04C0CD284F
:10144000CE28CF2831F4812C912C88ECA82E83E46F
:10145000B82EC501B4010E94BE0D6B017C010E9433
:10146000120465E070E080E090E00E94300280E1CC
:101470000E94F901BC01990F880B990B0E940F0C77
:101480004B015C0180922C0290922D02A0922E02C0
:10149000B0922F020E9408046AE070E080E090E0C1
:1014A0000E94300280E10E94F901BC01990F880B73
:1014B000990B0E940F0CA50194010E94DF0C4B01B7
:1014C0005C01FCE0CF16D104E104F1040CF4ADC0E2
:1014D00020E030E046E154E40E94F40D18160CF0D0
:1014E000A4C06CED70E08CED90E00E94CE036AE049
:1014F00070E080E090E00E94300200CFAD85BE85B4
:10150000119719F40E94FA03F9CEED85FE85329702
:1015100079F466E07FEF8AEF90E00E94CE036CE6FC
:1015200072E080E090E00E9430020E94E003E6CE8C
:101530008D859E85039799F40E94EC030E94E00339
:101540006CED70E08CED90E00E94CE0364E373E0FC
:1015500080E090E00E9430020E94EC03E6CFAD856F
:10156000BE85149799F40E94FA030E94E0036CED83
:1015700070E08CED90E00E94CE0364E373E080E0C5
:1015800090E00E9430020E94FA03CFCF0E94E00355
:1015900048EC50E060E070E088E891E00E943D0196
:1015A00048EC50E060E070E08BE092E00E943D018A
:1015B00048EC50E060E070E083E992E00E943D0179
:1015C00048EC50E060E070E080E193E00E943D0173
:1015D00046E950E060E070E083E992E00E943D015E
:1015E00040E951E060E070E080E193E00E943D015D
:1015F000B091F103B98361E08B2F0E940C0160E090
:1016000089810E94DE007ACEE1E0E09311049ECE53
:101610006091160470911704809118049091190438
:101620000E94BE0D6B017C01F6CED701C601019769
:10163000A109B1090797A105B10568F464E670E056
:101640008CED90E00E94CE0365E070E080E090E0D9
:101650000E9430024CCF8EE0C81AD108E108F10890
:1016600096E0C916D104E104F10408F03ACF20E075
:1016700030E84EE054E4C501B4010E94080C87FF35
:1016800030CF6CED70E084E690E0DCCF9B01AC01E4
:101690000C944A0B0E945D0B0C94CE0B0E94C00B65
:1016A00038F00E94C70B20F0952311F00C94B70B73
:1016B0000C94BD0B11240C94020C0E94DF0B70F3F0
:1016C000959FC1F3950F50E0551F629FF001729FE7
:1016D000BB27F00DB11D639FAA27F00DB11DAA1FF6
:1016E000649F6627B00DA11D661F829F2227B00D43
:1016F000A11D621F739FB00DA11D621F839FA00DCE
:10170000611D221F749F3327A00D611D231F849F1D
:10171000600D211D822F762F6A2F11249F57504074
:101720009AF0F1F088234AF0EE0FFF1FBB1F661FEF
:10173000771F881F91505040A9F79E3F510580F0B8
:101740000C94B70B0C94020C5F3FE4F3983ED4F377
:10175000869577956795B795F795E7959F5FC1F75C
:10176000FE2B880F911D9695879597F9089597F907
:101770009F6780E870E060E008959FEF80EC089537
:1017800000240A9416161706180609060895002460
:101790000A9412161306140605060895092E0394DA
:1017A000000C11F4882352F0BB0F40F4BF2B11F44E
:1017B00060FF04C06F5F7F4F8F4F9F4F089557FDAD
:1017C0009058440F551F59F05F3F71F04795880FAF
:1017D00097FB991F61F09F3F79F087950895121646
:1017E00013061406551FF2CF4695F1DF08C01616F2
:1017F00017061806991FF1CF8695710561050894A3
:101800000895E894BB2766277727CB0197F90895B9
:101810000E944A0C08F481E00895E89409C097FBFF
:101820003EF490958095709561957F4F8F4F9F4FB7
:101830009923A9F0F92F96E9BB279395F6958795FB
:1018400077956795B795F111F8CFFAF4BB0F11F4BE
:1018500060FF1BC06F5F7F4F8F4F9F4F16C0882365
:1018600011F096E911C0772321F09EE8872F762F9B
:1018700005C0662371F096E8862F70E060E02AF0DC
:101880009A95660F771F881FDAF7880F96958795C8
:1018900097F90895990F0008550FAA0BE0E8FEEF9D
:1018A00016161706E807F907C0F012161306E40724
:1018B000F50798F0621B730B840B950B39F40A261D
:1018C00061F0232B242B252B21F408950A2609F4FB
:1018D000A140A6958FEF811D811D0895F999FECF36
:1018E00092BD81BDF89A992780B50895262FF99960
:1018F000FECF1FBA92BD81BD20BD0FB6F894FA9AF3
:10190000F99A0FBE01960895052E97FB1EF40094D8
:101910000E949B0C57FD07D00E94AE0C07FC03D021
:101920004EF40C949B0C50954095309521953F4F6B
:101930004F4F5F4F089590958095709561957F4FBB
:101940008F4F9F4F08950E94D00CA59F900DB49F7C
:10195000900DA49F800D911D11240895A1E21A2ECF
:10196000AA1BBB1BFD010DC0AA1FBB1FEE1FFF1F43
:10197000A217B307E407F50720F0A21BB30BE40B93
:10198000F50B661F771F881F991F1A9469F76095DA
:101990007095809590959B01AC01BD01CF01089594
:1019A000A29FB001B39FC001A39F700D811D1124A0
:1019B000911DB29F700D811D1124911D08955058E5
:1019C000BB27AA270E94F70C0C94CE0B0E94C00BD9
:1019D00038F00E94C70B20F039F49F3F19F426F429
:1019E0000C94BD0B0EF4E095E7FB0C94B70BE92FBC
:1019F0000E94DF0B58F3BA17620773078407950735
:101A000020F079F4A6F50C94010C0EF4E0950B2E61
:101A1000BA2FA02D0B01B90190010C01CA01A00140
:101A20001124FF27591B99F0593F50F4503E68F19B
:101A30001A16F040A22F232F342F4427585FF3CFDC
:101A4000469537952795A795F0405395C9F77EF4AD
:101A50001F16BA0B620B730B840BBAF09150A1F0F6
:101A6000FF0FBB1F661F771F881FC2F70EC0BA0F7C
:101A7000621F731F841F48F4879577956795B79504
:101A8000F7959E3F08F0B0CF9395880F08F09927FF
:101A9000EE0F9795879508950E94600D0C94CE0BDC
:101AA0000E94C70B58F00E94C00B40F029F45F3F22
:101AB00029F00C94B70B51110C94020C0C94BD0B33
:101AC0000E94DF0B68F39923B1F3552391F3951B23
:101AD000550BBB27AA2762177307840738F09F5F4F
:101AE0005F4F220F331F441FAA1FA9F335D00E2EBC
:101AF0003AF0E0E832D091505040E695001CCAF729
:101B00002BD0FE2F29D0660F771F881FBB1F2617EB
:101B100037074807AB07B0E809F0BB0B802DBF01C2
:101B2000FF2793585F4F3AF09E3F510578F00C9491
:101B3000B70B0C94020C5F3FE4F3983ED4F3869508
:101B400077956795B795F7959F5FC9F7880F911DB2
:101B50009695879597F90895E1E0660F771F881F9E
:101B6000BB1F621773078407BA0720F0621B730B51
:101B7000840BBA0BEE1F88F7E09508950E94C50DFF
:101B80006894B1110C94020C08950E94E70B88F040
:101B90009F5798F0B92F9927B751B0F0E1F0660F31
:101BA000771F881F991F1AF0BA95C9F714C0B13072
:101BB00091F00E94010CB1E008950C94010C672F84
:101BC000782F8827B85F39F0B93FCCF386957795A1
:101BD0006795B395D9F73EF490958095709561958A
:101BE0007F4F8F4F9F4F08950E944A0C08F48FEF4C
:101BF000089597FB072E16F4009407D077FD09D0BF
:101C00000E940D0E07FC05D03EF4909581959F4FE4
:101C10000895709561957F4F0895AA1BBB1B51E1F4
:101C200007C0AA1FBB1FA617B70710F0A61BB70B4C
:101C3000881F991F5A95A9F780959095BC01CD01F1
:101C40000895EE0FFF1F0590F491E02D0994F8948C
:101C5000FFCF00007A430000C04200007042000045
:101C60003E43000060430000184300007A43000038
:101C700020430000704200007A4300005C430000F3
:101C80005243000039430000524300006643000005
:101C90007A430000704300007A43000000002003F4
:0C1CA0008002AD026D03DE02BC02D00227
:107E0000112484B714BE81FFF0D085E080938100F7
:107E100082E08093C00088E18093C10086E0809377
:107E2000C20080E18093C4008EE0C9D0259A86E02C
:107E300020E33CEF91E0309385002093840096BBD3
:107E4000B09BFECF1D9AA8958150A9F7CC24DD24C4
:107E500088248394B5E0AB2EA1E19A2EF3E0BF2EE7
:107E6000A2D0813461F49FD0082FAFD0023811F036
:107E7000013811F484E001C083E08DD089C08234E0
:107E800011F484E103C0853419F485E0A6D080C0E4
:107E9000853579F488D0E82EFF2485D0082F10E0AE
:107EA000102F00270E291F29000F111F8ED06801E7
:107EB0006FC0863521F484E090D080E0DECF843638
:107EC00009F040C070D06FD0082F6DD080E0C81688
:107ED00080E7D80618F4F601B7BEE895C0E0D1E017
:107EE00062D089930C17E1F7F0E0CF16F0E7DF06D8
:107EF00018F0F601B7BEE89568D007B600FCFDCFD4
:107F0000A601A0E0B1E02C9130E011968C91119780
:107F100090E0982F8827822B932B1296FA010C0160
:107F200087BEE89511244E5F5F4FF1E0A038BF0790
:107F300051F7F601A7BEE89507B600FCFDCF97BE46
:107F4000E89526C08437B1F42ED02DD0F82E2BD052
:107F50003CD0F601EF2C8F010F5F1F4F84911BD097
:107F6000EA94F801C1F70894C11CD11CFA94CF0C13
:107F7000D11C0EC0853739F428D08EE10CD085E9AC
:107F80000AD08FE07ACF813511F488E018D01DD067
:107F900080E101D065CF982F8091C00085FFFCCF94
:107FA0009093C60008958091C00087FFFCCF809118
:107FB000C00084FD01C0A8958091C6000895E0E648
:107FC000F0E098E1908380830895EDDF803219F02E
:107FD00088E0F5DFFFCF84E1DECF1F93182FE3DFCA
:107FE0001150E9F7F2DF1F91089580E0E8DFEE27F6
:047FF000FF270994CA
:027FFE00040479
:00000001FF
